:020000040000fa
:080000000001040000000000f3
:020000040000fa
:0400080044020000ae
:020000040000fa
:04000c0044020000aa
:020000040000fa
:0400100044020000a6
:020000040000fa
:0400140044020000a2
:020000040000fa
:04001800440200009e
:020000040000fa
:04001c00440200009a
:020000040000fa
:040020004402000096
:020000040000fa
:040024004402000092
:020000040000fa
:04002800440200008e
:020000040000fa
:04002c00440200008a
:020000040000fa
:040030004402000086
:020000040000fa
:040034000c020000ba
:020000040000fa
:04003800440200007e
:020000040000fa
:04003c00440200007a
:020000040000fa
:040040004402000076
:020000040000fa
:040044004402000072
:020000040000fa
:04004800440200006e
:020000040000fa
:04004c00440200006a
:020000040000fa
:040050004402000066
:020000040000fa
:040054004402000062
:020000040000fa
:04005800440200005e
:020000040000fa
:04005c00440200005a
:020000040000fa
:040060004402000056
:020000040000fa
:040064004402000052
:020000040000fa
:04006800440200004e
:020000040000fa
:04006c00440200004a
:020000040000fa
:040070004402000046
:020000040000fa
:040074004402000042
:020000040000fa
:04007800440200003e
:020000040000fa
:04007c00440200003a
:020000040000fa
:040080004402000036
:020000040000fa
:040084004402000032
:020000040000fa
:04008800440200002e
:020000040000fa
:04008c00440200002a
:020000040000fa
:040090004402000026
:020000040000fa
:040094004402000022
:020000040000fa
:04009800440200001e
:020000040000fa
:04009c00440200001a
:020000040000fa
:0400a0004402000016
:020000040000fa
:0400a4004402000012
:020000040000fa
:0400a800440200000e
:020000040000fa
:0400ac00440200000a
:020000040000fa
:0400b0004402000006
:020000040000fa
:0400b4004402000002
:020000040000fa
:0400b80044020000fe
:020000040000fa
:0400bc0044020000fa
:020000040000fa
:0400c00044020000f6
:020000040000fa
:0400c40044020000f2
:020000040000fa
:0400c80044020000ee
:020000040000fa
:0400cc0044020000ea
:020000040000fa
:0400d00044020000e6
:020000040000fa
:0400d40044020000e2
:020000040000fa
:0400d80044020000de
:020000040000fa
:0400dc0044020000da
:020000040000fa
:0400e00044020000d6
:020000040000fa
:0400e40044020000d2
:020000040000fa
:0400e80044020000ce
:020000040000fa
:0400ec0044020000ca
:020000040000fa
:0400f00044020000c6
:020000040000fa
:0400f40044020000c2
:020000040000fa
:0400f80044020000be
:020000040000fa
:0400fc0044020000ba
:020000040000fa
:0401000044020000b5
:020000040000fa
:0401040044020000b1
:020000040000fa
:0401080044020000ad
:020000040000fa
:04010c0044020000a9
:020000040000fa
:0401100044020000a5
:020000040000fa
:0401140044020000a1
:020000040000fa
:04011800440200009d
:020000040000fa
:04011c004402000099
:020000040000fa
:040120004402000095
:020000040000fa
:040124004402000091
:020000040000fa
:04012800440200008d
:020000040000fa
:04012c004402000089
:020000040000fa
:040130004402000085
:020000040000fa
:040134004402000081
:020000040000fa
:04013800440200007d
:020000040000fa
:04013c004402000079
:020000040000fa
:040140004402000075
:020000040000fa
:040144004402000071
:020000040000fa
:04014800440200006d
:020000040000fa
:04014c004402000069
:020000040000fa
:040150004402000065
:020000040000fa
:040154004402000061
:020000040000fa
:04015800440200005d
:020000040000fa
:04015c004402000059
:020000040000fa
:040160004402000055
:020000040000fa
:040164004402000051
:020000040000fa
:04016800440200004d
:020000040000fa
:04016c004402000049
:020000040000fa
:040170004402000045
:020000040000fa
:040174004402000041
:020000040000fa
:04017800440200003d
:020000040000fa
:04017c004402000039
:020000040000fa
:040180004402000035
:020000040000fa
:040184004402000031
:020000040000fa
:04018800440200002d
:020000040000fa
:04018c004402000029
:020000040000fa
:040190004402000025
:020000040000fa
:040194004402000021
:020000040000fa
:04019800440200001d
:020000040000fa
:04019c004402000019
:020000040000fa
:0401a0004402000015
:020000040000fa
:0401a4004402000011
:020000040000fa
:0401a800440200000d
:020000040000fa
:0401ac004402000009
:020000040000fa
:0401b0004402000005
:020000040000fa
:0401b4004402000001
:020000040000fa
:0401b80044020000fd
:020000040000fa
:0401bc0044020000f9
:020000040000fa
:0401c00044020000f5
:020000040000fa
:0401c40044020000f1
:020000040000fa
:0401c80044020000ed
:020000040000fa
:0401cc0044020000e9
:020000040000fa
:0401d00044020000e5
:020000040000fa
:0401d40044020000e1
:020000040000fa
:0401d80044020000dd
:020000040000fa
:0401dc0044020000d9
:020000040000fa
:0401e00044020000d5
:020000040000fa
:0401e40044020000d1
:020000040000fa
:0401e80044020000cd
:020000040000fa
:0401ec0044020000c9
:020000040000fa
:0401f00044020000c5
:020000040000fa
:0401f40044020000c1
:020000040000fa
:0401f80044020000bd
:020000040000fa
:0401fc0044020000b9
:020000040000fa
:10020000cf0721000e7f24000e01880000000000af
:10021000000020000000e000020032000001200089
:100220002002880014000700990007000000e00089
:1002300003003a0080d821000100200002003700ae
:100240000000200001002000810f7000010032003a
:1002500014000700000020000000e000020032004f
:1002600000000200000000001e1d0200000000004f
:100270000040da000000fe004440a90020032000f6
:100280000000e00003003200002020009001880000
:100290004440a800000006008a1f78008b1f7800e9
:1002a00000000600a1028800800478000000eb0036
:1002b0001f003700e284440054a0b4009905ba003e
:1002c000e284440054a0b4009906ba00e2844400d9
:1002d00054a0b4000006eb00476fde00fd07b2003b
:1002e000ae018800636ce10003003a00eaff0700fa
:1002f0000000eb000e003700606ce10008003a00df
:10030000004deb000a05e800020039003420ec0043
:100310000af0a0008b05e900f9ff3e000400370059
:100320006168e100010032000086eb000b0007006d
:1003300019c7ba001905ba000e04e00003003a001c
:100340000a00e000dbff3a0000000600fe07b200f2
:10035000ae0288008a047800f5ff37000cd0a300b5
:10036000e20f4d001c00390089027800354dba00bb
:100370000a05e800020039003420ec000af0a00071
:100380008b05e9000f003200254dba000a05e80090
:10039000020039003420ec000af0a0008b05e900cf
:1003a000080032000c00e0000600320015cdba0053
:1003b0000a05e800020039003420ec000af0a00031
:1003c0008b05e9008984e80054a0b4000b00e0002c
:1003d000e2ff3a00000006009902ba00055d7800cd
:1003e0008b05e900f7ff3200c82ade00055d7800c2
:1003f0008b05e900f3ff32000c00e000f1ff320052
:1004000019ddba00eeff3700001d040000000000f7
:100410003c0b0400000000003600f800809fbe0086
:10042000829fbe00849fbe00869fbe003200f800ff
:100430003400f80010002000a001880000202000f7
:10044000900188000000fa008860a90016030700e8
:100450000000e00003003200341d02000000000034
:10046000000000000080fa003400f9003200f900ba
:100470004f03be004f02be004f01be004f00be0042
:100480003600f900004006000040da000000fe00df
:10049000000005008001780002003700b1597800a3
:1004a0000201e9000200e000fcff3a000000060043
:020000040000fa
:1004b00011110000222200003333000044440000e8
:1004c00055550000666600007777000088880000b8
:1004d00099990000aaaa0000bbbb0000cccc000088
:1004e000dddd0000eeee0000cecd0000acab000084
:1004f00048450000415200005442000045410000c0
:1005000054000000494400004c4500000000000079
:0405100004000000e3
:020000040000fa
:100514001000fa002007980031079800420798005d
:10052400530798006407980075079800600220003c
:10053400c20a0700000f78001e0078000000e000e7
:100544000e0032004e00900000004000bb0a07007d
:10055400800078001e007800410898001e00780092
:10056400400890000000e00004003a001e007800fb
:10057400240b07000000eb00000f78001e00780039
:100584000000e000120032004e0090008000eb00fa
:100594000001eb00821f78009e0378007e03900028
:1005a400ee0290005e0290000001be00be009000ca
:1005b4002e0090000b0007008f87e9001e007800d2
:1005c4006a0007001000200010079800020037009e
:1005d4000080eb00100798001e0090000080fa00d5
:1005e400000006001400fa00200798003107980064
:1005f400420798005307980064079800750798000d
:10060400060f9800170f98001e089000c00890006d
:10061400110798001e089000c00890004e01900039
:10062400f0ff2700000041000000400080804000ef
:100634001e089000710898003e0090000000e00041
:10064400190032000000eb00000f78000d003700a5
:100654003e0090001e004000904078001e0890006c
:100664001e0040007a004000014878003e009000df
:100674001e004000104078000004e0000500320035
:100684001e0fe8001e007800e30f5000f0ff360054
:1006940001003700000000001e0890008040eb00bd
:1006a40051589800030037001e0890008040eb006a
:1006b400215898007e009000e30f5000020036009d
:1006c40030002000700798001e089000fe00900083
:1006d400310898001e0890000080e8002f0c0700e5
:1006e4001e0890006c0040002c0c07001e089000af
:1006f4009e089000410098007e009000e4001000e5
:100704001e089000610098001e0890009e0890004a
:10071400110898001e0990006000b80000119800ac
:10072400111198001e0890008040eb004160980071
:100734006e019000ae0090001e009000670b070051
:10074400800078001e089000010878000e089000d0
:100754000000e000030032000e0890009e089000a4
:10076400010878000080fa00000006000200fa0088
:10077400000f7800d50b0700304080000000e8002f
:1007840030408800004080000000e00007003a008c
:100794009e0078000140880030408000e10f500046
:1007a4000d003a00bf0307000b00370060408000d3
:1007b4000000e00008003a0000408000b00890000b
:1007c4001e00780030089000808f500002003e0028
:1007d4009e00780001408800a04080000000e800ee
:1007e400a04088001e007800b008900050408000af
:1007f400808f5000030036001e00780030089000ff
:10080400504088001e81e8001e00780030089000e7
:100814006a00b90080007800c00221000080400016
:1008240082007800e40b0700b50b070060408000ed
:100834000000e0000900320000408000b008900091
:100844001e00780030089000808f500003003100b3
:10085400341d020000000000000000000080fa00c7
:10086400000006000c00fa004007980051079800a9
:100874000000eb00000f78008e010700414080006b
:10088400110798004e009000900078005e009000e0
:1008940000804000200798004e00900090007800ef
:1008a4001e009000808f50000c0036004e00900017
:1008b400900078002e009000808f500012003600c7
:1008c400ae0090001e009000808f50000e00360095
:1008d40010002000000f78000b0037004e0090003d
:1008e400900078002e009000808f500004003e009d
:1008f400ae0090001e009000808f50000200360071
:1009040010002000000f78004e009000ae00900010
:10091400010878001e0078000000e00005003200a5
:10092400ae0090001e009000008050008000eb009c
:100934008105070065010700300798003e0090001c
:100944000000e00003003a00341d02000000000033
:10095400000000000080fa00000006000400fa0015
:10096400100798000000eb00000f78001e009000b4
:100974000000e000060032004e0107008000eb009a
:100984001e0090006c05070050010700000f78005e
:100994001e0078000000e00003003a00341d02004d
:1009a40000000000000000000080fa0000000600c3
:1009b4000c00fa0040079800510798000000eb0073
:1009c400000f78005e009000e30f50000200360034
:1009d40030002000500798003c0b07004e009000a8
:1009e4000000e00002003a000040800001003700ef
:1009f4004e009000100798001e009000b008900070
:100a040021079800ae0090005e009000808f500097
:100a140048003200de0090002e009000808f5000cd
:100a24000c003600004080009e009000808f500033
:100a34000e00320000408000b00890005e0090007c
:100a4400808f500009003e0010002000000f780045
:100a540006003700004080009e009000808f500008
:100a640002003a0010002000000f78001e009000e1
:100a7400b0089000310798001e009000de0090003e
:100a8400310898001e009000600090000000e00013
:100a9400040035005e009000e40010001e00900089
:100aa400610098001e009000500190003e009000ec
:100ab4006a00b90080007800c00221000080400074
:100ac400800f510015003a001e0090000080e800dd
:100ad400890b07001e009000b00890005040800071
:100ae400808f5000030036001e00900030089000f4
:100af400504088001e0090000081e8001e00900015
:100b0400300890006a00b90080007800c00221001b
:100b14000080400082007800270b07001e00780048
:100b24000000e00003003200341d02000000000059
:100b340000000000f20a07000080fa00000006002e
:100b44000400fa0010079800e00a07001e00900055
:100b54000000e00002003a0000408000010037007d
:100b64001e009000000f78001e80e800620b070052
:100b74001e007800200890000000e000030032000e
:100b84009e0078006c8040005b0b07001e80e8002c
:100b94008000780020072100070b07001e00780062
:100ba40040609000e14f500003003a001e007800be
:100bb4008040eb0041609800d10a0700604080004b
:100bc4000000e00003003200c00a0700d40207005e
:100bd400cb0a0700004080009e007800808f500000
:100be4000e003a00604080000000e0000400320083
:100bf400341d020000000000000000000700370060
:100c04009183800030408000808f500002003a00c1
:100c14000028ef0001003700910107000080fa006e
:100c2400000006000600fa00200798000000eb0010
:100c3400000f7800ae009000110798001e0090008d
:100c4400d000900020072100808f50000b003a0054
:100c54001e009000a008900080062100808f5000a4
:100c6400060032001e009000200890000000e00002
:100c740002003a0010002000000f78001e007800e7
:100c84000080fa00000006000400fa001007980033
:100c94009e009000010f7800004080009e007800c4
:100ca400808f5000250032001e0078000000e00014
:100cb40022003200850a07001e007800d9ff0700d1
:100cc4000000e0001c0032001e80e8000a0b070050
:100cd4001e007800b008900050408000808f5000c3
:100ce400030036001e007800300890005040880051
:100cf4001e81e8001e007800300890006a00b900e8
:100d040080007800c002210000804000820078004a
:100d1400a90a07001e007800b00890000040800077
:100d240030089000808f500003003900341d020009
:100d34000000000000000000710a07000080fa00b3
:100d4400000006000800fa00300798000000eb00dd
:100d5400000f7800be009000110798000000eb001f
:100d6400200798001e009000aeff07000000e0007e
:100d740026003200d04080000000e0001e003a004f
:100d84001e009000b00890000040800030089000e1
:100d9400808f50000200390010002000000f7800fe
:100da4001e0090000080e800d30a07001e00900097
:100db400b008900050408000808f5000030036003f
:100dc4001e00900030089000504088001e009000e3
:100dd4000081e8001e009000300890006a00b9000d
:100de40080007800c002210000804000820078006a
:100df400710a0700050037001e0090006c004000d7
:100e040080007800800621006b0a07001e0078002d
:100e14000080fa00000006000200fa00858120002c
:100e24000002eb008001eb0032072000212828009b
:100e3400c0b32000b6fd0700000f78001e00780044
:100e4400e10f50000d003a0011028000f0f12f0074
:100e5400008060000050a000100288000000000024
:100e6400000000000080eb00b0408800100020006b
:100e7400604088000828ef00e50907000080fa00b8
:100e8400000006000000fa0011028000f0f12f00bb
:100e9400008060000050a0001002880000000000e4
:100ea400000000000c28ef00f10907000080fa00a0
:100eb400000006000000fa00d04080000000e800b6
:100ec400d04088000080fa00000006000600fa0006
:100ed4000000eb00000f78000000eb001007980002
:100ee400fa090700d04080000000e900d0408800e3
:100ef400d04080000000e00045003a00304080000f
:100f04000000e000420032002100370070838000be
:100f140030009000000f78009e0078006c80400044
:100f2400750a07001e80e800730a07001e00780097
:100f3400b008900050408000808f500003003600bd
:100f44001e00780030089000504088001e81e800a0
:100f54001e007800300890006a00b9008000780014
:100f6400c00221000080400082007800120a0700bd
:100f74001e007800b0089000004080003008900007
:100f8400808f50000200390010002000804088004b
:100f9400408380000000e000dcff3a001e0078007f
:100fa4000000e00001003200dd0107007140800014
:100fb400210798002e0090000000e0000c00320091
:100fc400380007000000e00002003200100020009a
:100fd400804088002e0090000000e900200798005f
:100fe4002e0090000000e000f5ff3a000e28ef000c
:100ff400804080000000e000050032001000200066
:1010040010079800341d02000000000000000000da
:10101400bb0907001e0090000080fa0000000600d3
:101024000200fa00a909070041408000010f78007e
:10103400b30907001e0078000080fa0000000600d3
:101044000400fa000000eb00000f7800414080002b
:10105400110798001e0090000080fa0000000600ae
:101064000000fa00304080000080fa000000060012
:101074000400fa00100798001e0090000000e00031
:1010840002003a0000408000010037001e0090007a
:10109400000f78009e0078007a8040000080fa00fb
:1010a400000006000a00fa000000eb00000f7800c0
:1010b400d04080000000e0005e003a004040800024
:1010c4000000e800100798009e009000414088004e
:1010d4001e0090000000e0000a003a001140800069
:1010e400210798002040800010408800ae00900046
:1010f40021408800904080000000e8009040880073
:1011040087010700b04080009e009000808f50004f
:101114003c0039000100370000000000104080004e
:10112400100078000000e00003003a000080eb00ab
:10113400b040880033003700104080003000900039
:1011440030009000300798003e009000900090001e
:10115400410798009e0090004e009000808f500040
:1011640003003100ce009000b14088002500370014
:101174003e0090000080e800df0907003e00900078
:10118400200890000000e000030032003e009000c0
:101194006c004000d80907003e009000b0089000a1
:1011a40050408000808f5000030036003e009000c5
:1011b40030089000504088003e0090000081e80014
:1011c4003e009000300890006a00b900800078006a
:1011d400c0022100008040008200780076090700e8
:1011e4003e009000b008900000408000300890005d
:1011f400808f5000c8ff390010002000000f7800d5
:10120400c6ff370000408000300890006a00b90033
:1012140080007800c00221000080400010007800a7
:10122400e10f50000600360010002000000f780087
:1012340003003700704080000000e8007040880020
:10124400804080000000e000020032001000200016
:10125400000f78001e0078000080fa0000000600ed
:101264000400fa00d04080000000e00003003200d7
:101274001000200080408800290037001028ef006b
:1012840051408000010f7800010037001e0fe90073
:101294001e0078006a00b90080007800c0022100b6
:1012a40000804000100078000000e000f7ff3200ea
:1012b4001e0078006a00b90080007800c002210096
:1012c40000804000100798001e009000100090005d
:1012d400900090001e009000110098001e009000e5
:1012e400900090001e00900064004000808f500029
:1012f40005003a001e00900010009000900090003d
:101304001e009000110098001e0090001000900034
:1013140030009000004088009e0078005140880012
:101324000080fa00000006000400fa00000f7800b4
:1013340011079800004080006c0040008000780095
:101344001e0078003a090700110020001e009000da
:10135400f90207000080fa00000006000600fa0007
:10136400000f7800110798002207980000408000c1
:101374009e00900001f0a0006100980000408000f1
:101384006c004000800078001e0078000a09070005
:10139400110020002e009000e70207000080fa00f0
:1013a400000006000600fa00200798002e009000b6
:1013b4003000900030009000100798001e0090004c
:1013c4006c0040004c090700d04080000000e000a1
:1013d40016003a001e0090000080e800460907004d
:1013e4001e009000b008900050408000808f500094
:1013f400030036001e009000300890005040880022
:101404001e0090000081e8001e009000300890004b
:101414006a00b90080007800c0022100008040000a
:1014240082007800e4080700050037001e009000e1
:101434006c0040008000780080062100de08070070
:101444001e009000b008900000408000300890001a
:10145400808f50000500360010002000000f780037
:101464001000200080408800020037000000eb00dc
:10147400000f78001e0078000080fa0000000600cb
:101484000600fa0010079800210798002e0090002b
:101494008000780001f0a0001e0090000108780090
:1014a4001e00900030009000000f78001e00900095
:1014b400110907001e80e8000f0907001e007800cc
:1014c400b008900050408000808f50000300360028
:1014d4001e00780030089000504088001e81e8000b
:1014e4001e007800300890006a00b900800078007f
:1014f400c00221000080400082007800ae0807008e
:101504001e007800b0089000004080003008900071
:10151400808f5000020036001000200080408800b8
:101524000080fa00000006000200fa00000f7800b4
:1015340066080700914080001e00780001087800ca
:10154400414080001e007800110098006c080700dc
:101554000080fa00000006000200fa00000f780084
:10156400914080001e00780001087800414080000e
:101574001e007800110098000080fa0000000600a8
:101584000a00fa0030079800410798004f08070046
:1015940041408000110798003e0090001000900028
:1015a4009e00900000805000200798004e0090009c
:1015b40010007800e10f400003003a000000eb0047
:1015c400000f7800220037003e0090009000780061
:1015d40090408000808f5000080032003e00900050
:1015e400900090001e009000808f500003003e0089
:1015f40010002000000f7800150037004e00900006
:10160400900078002e009000808f50000b00360070
:101614004e009000900078002e00900080805000d2
:101624004e009000010878003e009000caff0700b9
:101634000000eb00000f7800050037004e0090001a
:101644008000eb000108780010002000000f7800f3
:101654002b0807001e0078000080fa000000060036
:101664000000fa0010002000804088000080fa008a
:10167400000006000200fa00000f780001003700a5
:10168400000000002300070060818000e10f50008b
:10169400fbff3600341d02000000000000000000c3
:1016a400f8ff37000200fa000000eb00000f78009a
:1016b400070037001e0078006a00b9008000780037
:1016c400c0022100008040001b0807001e0fe80034
:1016d4001e007800e30f5000f6ff3600400521009d
:1016e40015080700e0052100130807008006210003
:1016f40011080700200721000f08070040052100fa
:1017040010408800e0052100204088000080fa0095
:10171400000006000000fa000080fa000000060045
:101724000200fa0010408000100078000000e00081
:1017340003003a000080eb00b04088000700370047
:10174400104080003000900030009000000f7800be
:101754001e00780010009000b04088000080fa005d
:10176400000006000200fa0000408000e000900043
:10177400010f78000040800001408000b108900013
:10178400e4801000610098001e0078000080fa00d8
:10179400000006000800fa002007980031079800ae
:1017a400ca070700004080009010900000109000cd
:1017b400e00f5000e08f58000c003a000040800019
:1017c40011c0b300416098003e0090000000e000aa
:1017d40006003200110020003e009000d6010700f0
:1017e400341d02000000000000000000c4070700d0
:1017f400b60707000040800000119000901190008f
:10180400028fbe001e00be00e00f5000e08f5800a3
:101814000f0032002e0090000000e00005003200ae
:10182400024080006000b800001198001111980077
:1018340007003700024080000082eb008082eb004a
:101844003e004200ae804a00001198001111980039
:10185400004080008040eb0041609800a80707002a
:101864001e00be000080fa00000006000e00fa0010
:101874001007980021079800320798004307980042
:1018840054079800650798009007070000408000ff
:1018940040609000e24f500022003200044080007b
:1018a40004119000941190001e009000ae0090006e
:1018b4000080ea008180ea00820278000301780057
:1018c40080017800010078008382620000006100da
:1018d4008000eb00c000dd00000020000001be001d
:1018e4006128b80000017100818171000212980022
:1018f400131298000040800011c0b30041609800aa
:101904006e0090000000e00006003200110020008c
:101914006e00900088010700341d020000000000e2
:101924000000000076070700680707005e009000cb
:101934000000e0000500320000408000901090009c
:10194400001090005e0190000089be0000408000fd
:1019540040609000e24f5000030032000000eb00b2
:10196400000f780018003700044080000411900034
:10197400941190003e009000ce0090000080ea0098
:101984008180ea00820278000301780080017800f7
:101994000100780083826200000061008000eb0097
:1019a400c000dd00000020000001be006128b80076
:1019b40000017100818171000212980013129800d5
:1019c40010002000000f7800004080008040eb00f1
:1019d400416098004a0707001e0078000080fa0062
:1019e400000006001000fa00300798004207980033
:1019f40053079800610798007407980010002000ae
:101a0400000f7800be009000110798002f07070010
:101a14007e0090000000e000050032001e009000ef
:101a240090109000001090007e0190000089be008c
:101a34001e00900040619000424798001e009000f4
:101a440021c0b300416098006e009000e20f500086
:101a540017003200e20f500005003e000000e000d5
:101a64002e003200e10f5000060032002c00370037
:101a7400e30f500017003200e40f50001b00320047
:101a8400270037001e009000001190009011900074
:101a94004e009000de009000000071008180710013
:101aa4001e01900000119800111198001c003700cd
:101ab4001e00900090109000001090006100400003
:101ac400e08048001e019000001198001111980058
:101ad400130037001e0090004e019000de019000bc
:101ae40002109800131098000d0037004e4090002b
:101af400e24f5000060032001e0090004e0190009c
:101b0400de019000021098001310980004003700c2
:101b14000000eb00000f7800010037000000000017
:101b24004e409000e14f50001e003a001e0090000d
:101b34000080e800700707001e009000b0089000c5
:101b440050408000808f5000030036001e0090003b
:101b540030089000504088001e0090000081e8008a
:101b64001e009000300890006a00b90080007800e0
:101b7400c002210000804000820078000e070700a8
:101b84001e009000b00890000040800030089000d3
:101b9400808f500003003600341d02000000000056
:101ba40000000000d60607001e0078000080fa003e
:101bb400000006001400fa0040079800520798003d
:101bc4006307980071079800040f9800150f980098
:101bd40010002000000f7800ce009000110798003c
:101be4000000eb00200798000e0890000000e000c1
:101bf400050032001e00900090109000001090002c
:101c04000e0990000089be001e0090004061900003
:101c1400624798001e00900021c0b3004160980004
:101c24007e009000e20f500017003200e20f5000d7
:101c340005003e000000e0002e003200e10f5000dd
:101c4400060032002c003700e30f5000170032006a
:101c5400e40f50001b003200270037001e009000e4
:101c640000119000901190005e009000ee00900032
:101c740000007100818071001e0190000011980025
:101c8400111198001c0037001e0090009010900065
:101c94000010900061004000e08048001e019000a8
:101ca4000011980011119800130037001e009000d5
:101cb4005e019000ee01900002109800131098004d
:101cc4000d0037006e409000e24f500006003200d5
:101cd4001e0090005e019000ee019000021098003a
:101ce40013109800040037000000eb00000f780088
:101cf40001003700000000006e409000e14f5000ea
:101d04002c003a00d04080000000e00016003a00a9
:101d14001e0090000080e800f70607001e009000f7
:101d2400b008900050408000808f500003003600bf
:101d34001e00900030089000504088001e00900063
:101d44000081e8001e009000300890006a00b9008d
:101d540080007800c00221000080400082007800ea
:101d640095060700050037001e0090006c00400037
:101d740080007800800621008f0607001e00900076
:101d8400b00890000040800030089000808f500020
:101d9400080036001e0890000000e0000300320036
:101da4001e08900011002000010878001000200097
:101db400804088001e0078000080fa0000000600c1
:101dc4000a00fa003007980041079800be0090000e
:101dd400010f78000000eb00100798001e00780047
:101de400c0609000414798001e00780021c0b300f5
:101df400416098001e007800901090000010900040
:101e040061004000e08048001e0178000011980045
:101e1400111198004e409000e14f50002a003a0002
:101e2400d04080000000e00014003a001e80e8006a
:101e3400b10607001e007800b008900050408000f2
:101e4400808f5000030036001e0078003008900098
:101e5400504088001e81e8001e0078003008900081
:101e64006a00b90080007800c002210000804000b0
:101e74008200780050060700050037009e007800b5
:101e84006c80400080007800800621004a0607002c
:101e94001e007800b00890000040800030089000d8
:101ea400808f5000080036004e0090000000e000d3
:101eb400030032004e009000110020000108780059
:101ec40010002000804088000080fa000000060016
:101ed4000600fa00200798002e0090000000e000a1
:101ee40002003a0000408000010037002e009000fc
:101ef40010079800f50507001e0090004060900050
:101f0400e24f500006003a001e0090008040eb00b3
:101f14004160980010002000000f78000200370094
:101f24000000eb00000f7800f50507001e007800a4
:101f34000080fa00000006000800fa00200798005c
:101f44003107980041408000010f78000040800074
:101f54000080e800680607002e009000e10f4000b2
:101f640009003a003e0090000000e0000600320044
:101f7400004080000080e8008000780020072100f5
:101f84000d060700180037002e0090001e004000c8
:101f940010079800004080009e00900011009800f7
:101fa4001e0090009e0f500005003100004080008c
:101fb4008080e800204080001d0607000a003700ea
:101fc400004080008080e800104080001806070070
:101fd400b04080009e009000808f500002003100cd
:101fe4009e009000b14088000080fa0000000600c6
:101ff4000600fa0010079800210798009e00900040
:10200400010f7800b10507001e0078001001780068
:102014001e007800f00890001e0078000010900068
:102024000088b90000007800800041001e0078009c
:10203400210098001e0078008000eb0061089800e1
:102044001e007800900078001e00780011009800af
:102054001e007800100178001e00780070089000bf
:102064008000e9001e007800001090000088b9008c
:1020740000007800800041001e00780031009800c4
:102084001e00780080c0eb00216098001e007800dc
:1020940080c0eb00316098002e0090000000e0004a
:1020a4000d003a001e007800400090000000e0009f
:1020b4000f0032009e00780068804000b9fc0700e1
:1020c4000000e0000a003200341d0200000000009d
:1020d40000000000060037009e0078006880400081
:1020e400950507009e007800728040009205070065
:1020f40083050700100020000080fa00000006009d
:102104000c00fa003007980041079800224f98000d
:102114004e0090000000e00003003a000000eb00d5
:10212400000f780005003700be0090004e009000bc
:102134000088b90000007800000f780041022000f8
:102144001e804000bd030700100798001e00900089
:102154000000e0000b0032009e0090002107980070
:102164002e0090004002b000200798001e0290004c
:10217400ae4990002e019000ce0090003e009000e9
:10218400030007001e0090000080fa000000060013
:102194000a00fa00000f780011079800220798003f
:1021a40063479800440798001e0090000000e00078
:1021b40004003a00ce0090004e0090000108780020
:1021c40003003700ae0090004e0090000108780034
:1021d4004e0090009e007800710898004e00900018
:1021e4009e00900001109800110020004e00900005
:1021f4007fff07000080fa00000006001200fa00ca
:10220400500798006107980072079800030f980020
:102214000000eb00000f7800de009000110798002a
:102224000100370000000000280507001e00900090
:10223400e00890001e00900070089000808f50000d
:10224400030039000e089000e20f50001b003a0012
:102254000e099000ee0090001e0090008602070018
:10226400200798001e009000100890000000e00075
:10227400090032001e0090007200400049fc070073
:102284000000e0000a003200341d020000000000db
:1022940000000000060037002e0090000000e0005f
:1022a40003003200341d02000000000000000000a2
:1022b40013050700100020003d0037007e00900049
:1022c4000000e00003003a000d0507000000eb00e9
:1022d400370037001e0078000000e00004003a00d8
:1022e400660047009cfc070010002000000f7800e7
:1022f40003050700effa0700f40407001e0090002e
:1023040020609000e14f400003003a001e0090005e
:102314008040eb00216098001e0090003060900027
:10232400e14f400003003a001e0090008040eb00a3
:1023340031609800f2040700ee0047006600470091
:102344008ffc07000000e00015003a001e0090001a
:10235400160307000000e0000d003200fe009000ac
:102364001e00900068004000effb07001e00900074
:10237400b6020700d5fa07000000e000a9ff3a0002
:10238400341d02000000000000000000a6ff37001a
:102394001e009000ad020700ccfa0700a2ff370030
:1023a4001e009000a9020700c8fa07000000eb0015
:1023b4000080fa00000006001000fa0040079800b0
:1023c400510798006207980073079800ce009000a8
:1023d400110798000000eb00200798001e009000f1
:1023e400e00890001e00900070089000808f50005c
:1023f400030039007e009000e20f500022003a00f2
:102404001e009000b0609000614798007e0190002b
:10241400de0090001e009000170207006e4090003e
:10242400e14f400010003a001e0090001008900098
:102434000000e000110032001e0090007200400015
:10244400d8fb07000000e0000c0032006e00900092
:102454000000e000090032006e009000110020002e
:1024640001087800050037006e4090000040e80045
:10247400804078001e009000316098001000200019
:10248400000f7800020037000000eb00000f780016
:102494001e0078000080fa00000006000e00fa001a
:1024a4005007980061079800de009000110798001b
:1024b4000000eb00200798001e009000e008900048
:1024c400310798001e009000f00890003e00900034
:1024d400808f5000220036001e009000b0609000f3
:1024e400014f98003e0090008000e8001e0090001c
:1024f400610898000e489000e14f400010003a0037
:102504001e009000100890000000e000110032004e
:102514001e00900072004000a2fb07000000e000d3
:102524000c0032006e0090000000e0000900320050
:102534006e009000110020000108780005003700ab
:102544000e4890000040e800804078001e00900093
:102554003160980010002000000f7800020037005e
:102564000000eb00000f78001e0078000080fa00e5
:10257400000006001000fa00500798006107980058
:10258400720798000000eb00000f7800de00900056
:102594001107980003003700000000000100370015
:1025a40000000000490407001e009000e0089000ad
:1025b400210798002e0090000000e0001600320071
:1025c400ee0090001e009000fe0107002e00900017
:1025d4008000e9001e009000610898001e00900031
:1025e400400090000000e000080032001e0090004f
:1025f400680040006bfb07000000e00003003200ad
:10260400341d020000000000000000003c0407002c
:1026140010002000410037007e0090000000e00020
:1026240003003a00360407000000eb003b003700cb
:102634001e0078000000e00004003a006600470035
:10264400c5fb070010002000000f78002c040700d1
:1026540018fa07001d0407001e0090002060900077
:10266400e14f400003003a001e0090008040eb0060
:10267400216098001e00900030609000e14f4000ff
:1026840003003a001e0090008040eb003160980087
:102694001b040700ee00470066004700b8fb070074
:1026a4000000e00015003a001e0090001f02070021
:1026b4000000e0000d003200fe0090001e009000bb
:1026c4007200400018fb07001e009000df010700a5
:1026d400fef907000000e000afff3a00341d0200dd
:1026e4000000000000000000aeff37001e00900054
:1026f400d6010700f5f90700aaff37001e00900075
:10270400d2010700f1f907001e009000070207003c
:102714000000e000a2ff32000000eb000080fa009d
:10272400000006000e00fa005007980061079800a8
:102734000000eb00000f7800de0090001107980005
:102744000300370000000000010037000000000013
:10275400de0307001e009000e008900021079800a7
:102764002e0090000000e000130032002e009000c4
:102774008000e9001e009000610898001e0090008f
:10278400400090000000e000080032001e009000ad
:102794006800400003fb07000000e0000300320073
:1027a400341d02000000000000000000d4030700f4
:1027b40010002000410037006e0090000000e0008f
:1027c40003003a00ce0307000000eb003b00370093
:1027d4001e0078000000e00004003a006600470094
:1027e4005dfb070010002000000f7800c403070001
:1027f400b0f90700b50307001e00900020609000a8
:10280400e14f400003003a001e0090008040eb00be
:10281400216098001e00900030609000e14f40005d
:1028240003003a001e0090008040eb0031609800e5
:10283400b3030700ec0047006600470050fb0700a5
:102844000000e00015003a001e009000b7010700e8
:102854000000e0000d003200ee0090001e00900029
:1028640072004000b0fa07001e00900077010700d4
:1028740096f907000000e000b2ff3a00341d0200a0
:102884000000000000000000b1ff37001e009000af
:102894006e0107008df90700adff37001e009000a0
:1028a4006a01070089f907001e0090009f010700d4
:1028b4000000e000a5ff32000000eb000080fa00f9
:1028c400000006001200fa006007980071079800e3
:1028d400020f98000000eb00000f7800ee0090005b
:1028e40011079800030037000000000001003700c2
:1028f40000000000750307001e009000e00890002f
:10290400210798002e0090000000e000180032001b
:102914001e009000b000900031079800fe00900067
:102924001e009000270107001e009000be009000ca
:10293400310098001e009000100890000000e00094
:10294400080032001e0090007200400095fa070053
:102954000000e00003003200341d0200000000000b
:10296400000000006603070010002000410037004b
:102974000e0890000000e00003003a006003070026
:102984000000eb003b0037001e0078000000e00070
:1029940004003a0068004700effa07001000200026
:1029a400000f78005603070042f9070047030700a9
:1029b4001e00900020609000e14f400003003a00a8
:1029c4001e0090008040eb00216098001e009000e3
:1029d40030609000e14f400003003a001e00900078
:1029e4008040eb003160980045030700f000470089
:1029f40068004700e2fa07000000e00015003a0012
:102a04001e009000490107000000e0000d003200a4
:102a14008e0890001e0090007200400042fa0700e9
:102a24001e0090000901070028f907000000e000db
:102a3400adff3a00341d0200000000000000000059
:102a4400acff37001e009000000107001ff90700cb
:102a5400a8ff37001e009000fc0007001bf90700c8
:102a64001e009000310107000000e000a0ff3200ca
:102a74000000eb000080fa00000006001000fa00dd
:102a8400500798006107980072079800de009000d4
:102a9400110798000000eb00200798001e0090002a
:102aa400e0089000310798003e0090000000e0002c
:102ab400250032001e009000a0609000014f980095
:102ac400ee0090001e009000be0007003e00900043
:102ad4008000e9001e009000610898000e489000f4
:102ae400e14f400010003a001e00900040009000aa
:102af4000000e000110032001e0090006800400059
:102b040028fa07000000e0000c0032007e0090006c
:102b14000000e000090032007e0090001100200057
:102b240001087800050037000e4890000040e800d6
:102b3400804078001e009000216098001000200062
:102b4400000f7800020037000000eb00000f78004f
:102b54001e0078000080fa00000006000c00fa0055
:102b64004007980051079800ce0090001107980084
:102b74000000eb00200798001e0090006008900001
:102b84000000e0000c0032001e009000b000900035
:102b940031079800de0090001e00900089000700b5
:102ba4001e009000be00900031009800100020002c
:102bb400000f7800020037000000eb00000f7800df
:102bc4001e0078000080fa00000006000400fa00ed
:102bd40010079800bd0207001e009000e008900056
:102be400010f7800c60207001e0078000080fa007a
:102bf400000006000600fa0020079800ae009000ce
:102c0400010f7800b10207001e007800f008900060
:102c14001e007800600890000080500010079800a3
:102c2400b70207001e0090000080fa0000000600b2
:102c34000600fa0020079800ae009000010f78000b
:102c44001e007800e0089000110798001e00900014
:102c54000080fa00000006000400fa001007980043
:102c64009e009000010f78001e00780065010700a7
:102c74000080fa00000006000a00fa00200798000d
:102c840031079800420798000000eb0010079800f5
:102c94002e009000e0089000010f78002e009000b4
:102ca400001090000000e000400032004e00900050
:102cb4000000e00019003a002e00900080109000ff
:102cc4002e0090001000900001017800be009000da
:102cd400eff507002e009000900090002e00900069
:102ce40000109000808040002e0090001100980099
:102cf4002e009000900090002e0090002000900084
:102d0400808f5000290039002e0090009000780038
:102d14002e00900011009800240037002e0090002f
:102d2400801090002e009000300090000101780087
:102d3400be009000d6f507002e009000b000900071
:102d44002e009000001090000000ea0080804000f7
:102d54002e009000310098002e009000b0009000ea
:102d64002e00900010007800808f50000800310081
:102d74002e009000a00090002e0090000010900003
:102d84000000ea00808040002e009000310098008e
:102d94004e009000e20f500004003a001e0078003c
:102da4000000e000010032001e0fe9009e00e80070
:102db4002e009000610898001e0090000080fa0028
:102dc400000006000400fa00000f780011079800c4
:102dd4001e007800001090000000e000190032008e
:102de4001e007800b00090001e00780000109000d3
:102df400808040001e007800310098001e0078009a
:102e0400b00090001e00780020009000808f5000d9
:102e1400040039001e007800900078001e0078003d
:102e2400310098001e007800801090001e00780089
:102e34003000900001017800800078001e009000ae
:102e440093f507000080fa00000006000400fa0071
:102e5400100798001d0207001e009000b06090004b
:102e6400014f78000b0037001e00900010089000fe
:102e74000000e0000b0032001e00900072004000d1
:102e840048f907000000e00001003200f4f90700ef
:102e94001e4fe9001e4078000004e000f2ff3c00f1
:102ea40001003700000000001e00900080c0eb000d
:102eb4003160980012020700040207001e0090000f
:102ec400a0609000114798000d0037001e0090008c
:102ed400400090000000e0000d0032001e00900051
:102ee400680040002ff907000000e00001003200f4
:102ef400dbf907001e4090000040e90010479800ed
:102f04001e4090000004e000f0ff3c000100370088
:102f1400000000001e00900080c0eb0021609800bb
:102f2400f70107000080fa00000006000400fa0020
:102f340010079800e50107001e009000600890004b
:102f44000000e00003003a0010002000000f7800a9
:102f5400020037000000eb00000f7800e8010700d2
:102f64001e0078000080fa00000006000600fa0047
:102f740020079800ae009000110798001e009000f2
:102f8400600890000000e00003003a0010002000f8
:102f9400000f7800020037000000eb00000f7800fb
:102fa4001e0078000080fa00000006000400fa0009
:102fb40010079800c50107001e009000e00890006b
:102fc4001e00900070089000808f500003003a00ab
:102fd40010002000000f7800020037000000eb0012
:102fe400000f7800c60107001e0078000080fa0078
:102ff400000006000600fa0020079800ae009000ca
:10300400110798001e009000e00890001e00900038
:1030140070089000808f500003003a0010002000d8
:10302400000f7800020037000000eb00000f78006a
:103034001e0078000080fa00000006000a00fa0072
:10304400400798000000eb002007980099f707005c
:10305400004180000000e00001003a009c000700ed
:10306400314180004e009000008060000000e000cc
:1030740060003a004e0090000000e0000d003200b5
:1030840040148400ce009000008040004007980067
:103094004e00900061006000004078000004e000f1
:1030a400040032004e0090000000a1000080e800ff
:1030b400400798004e0090000000e0004d003200f0
:1030c40010418000ce009000808f500049003e00e7
:1030d400c081200010079800e1408000010f7800b3
:1030e400040037009e007800110798001e00780045
:1030f400100f78001e007800900090004e009000a1
:10310400808f5000040031001e0078001000780009
:103114000000e000f3ff3a00004180009e007800c8
:10312400808f5000330032001e0090009000780021
:103134004014840000804000200798001e0078009e
:10314400900078001e009000010878001e007800ae
:10315400900090004e009000808050004014840045
:1031640000004000808f50000e0036004e0090009a
:103174001e004000300798001e0078009000900068
:103184004e009000808050003e0090001100980096
:103194001e007800ce009000110098003e009000c0
:1031a40082000700114180001e007800100090008a
:1031b40000805000104188001141800020418000af
:1031c400808f5000020031001041800020418800af
:1031d4001e00780090009000304180008100700053
:1031e4001e007800110098001e0078008000eb009b
:1031f4000108780035f707002e0090000080fa00df
:10320400000006000600fa0020079800ae009000b7
:10321400010f78002e0090000000e0001f00320033
:10322400401484000000ea001e0f40009e00780055
:10323400110798001e00900090009000304180001b
:10324400008060000000e000140032001e009000c6
:10325400100078000000e00010003a001e0090000a
:1032640090009000304180000080ea00808060007f
:103274001e009000110098000ef707001e00900039
:1032840090009000104180000080400010418800b0
:103294001e009000450007000cf707000080fa00ac
:1032a400000006000000fa00104180000080fa00cf
:1032b400000006000000fa00204180000080fa00af
:1032c400000006000000fa000080fa00000006007a
:1032d4000800fa000080200010079800c082200037
:1032e400000f78001e007800610060000040780044
:1032f4000004e000070032001e0fe8001e00a100d9
:103304001e0090009e005000c082200000804000fb
:10331400100798009e007800210798002e00900066
:10332400e04088001e28ef00ae0090001e009000d0
:10333400008f4000401484001e0f10001e00a100e6
:103344001e00780000418800004180008000eb00ee
:1033540011009800004180008000eb000108780013
:10336400ae009000310798003e0090009e001000cf
:103374003e00900011009800014180003e00900042
:10338400010878003e009000100090002041880061
:103394003e009000100090001041880000002800ba
:1033a400304188000080fa00000006000600fa00a0
:1033b40020079800c0812000000f78000200370029
:1033c4001e007800100f78001e007800900078002e
:1033d4002e009000808f5000f9ff39009e00780085
:1033e400110798001e007800100090009e009000c5
:1033f400808040002e009000808f500009003a0029
:103404001e007800900090002e00900010009000a4
:10341400808040001e007800110098009e00780013
:1034240021079800ae009000110798002e0090002c
:10343400100090009e009000808040001e007800e4
:1034440010007800808f500017003a001e007800aa
:103454009000780000418000808f50000e00320000
:103464002e009000900090001e007800100078005c
:1034740010009000808040002e0090001100980001
:103484001e00780010007800900078002e00900054
:103494000108780008003700014180002e009000e8
:1034a40001087800040037001e00780090007800be
:1034b4002e009000010878002e0090009e007800f5
:1034c400808f5000030032001e007800ae00900090
:1034d400010878000080fa00000006002a00fa00c3
:1034e400201798003117980042179800e40047000d
:1034f400822528000f000900b2187800be10900041
:10350400110798002e1090001e0190000208780008
:103514002e1090000080e800201798002e109000d4
:103524008000eb00010878002e1090000080e80075
:10353400201798002e1090008000eb0001087800fe
:103544002e1090000080e80020179800ce10900004
:103554002e109000010878002e1090000080e800e2
:10356400201798000000eb00000f78000a003700d5
:103574001e0078000000400000004700a0009000fa
:103584002e109000010878002e1090000080e800b2
:10359400201798001e0fe8001e007800ef0f50005f
:1035a400f3ff3600210280002e10900001087800fd
:1035b4002e1090000080e8002017980091018000f0
:1035c4002e109000010878002e1090000080e80072
:1035d40020179800a10180002e10900001087800a7
:1035e4002e1090000080e800201798002e10900004
:1035f4008000eb00010878002e1090000080e800a5
:10360400201798002e1090000080fa000000060099
:103614000000fa00190007000040800090077800bd
:103624004f007800504188003400f9003200f9005e
:103634004400f9005400f9003600f9004f077800ff
:103644004f06be004f05be004f04be004f03be0030
:103654004f02be004f01be004f00be004200f90001
:1036640000000600100020000080fa0000000600a0
:103674000000fa000080fa00000006000400fa00ce
:10368400f07c200001002000008fbe009421ef0098
:103694009021ef001e007800900c88004105800006
:1036a400f0ff28000080600000c0a00040058800f2
:1036b4008860a9009860a8009481a80094a1a9003a
:1036c40095e1a8000080fa00000006000000fa005e
:1036d40011028000f0f12f00008060000050a00073
:1036e400100288000000000000000000504180002b
:1036f4000000e800504188000080fa000000060045
:103704000000fa00504180000000e90050418800a8
:10371400504180000000e00005003a0011028000e2
:10372400f0f12f000080600010028800000000000b
:103734000080fa00000006000200fa00000f780082
:103744009e00780064804000800078001e007800ad
:10375400110098001e0078008080eb002100980082
:103764009e00780064804000800078001e0078008d
:10377400310098009e00780064804000800078004a
:103784001e007800410098001e0078008000eb00c5
:10379400010878000080fa00000006000200fa0028
:1037a400000f78001e0078008000eb0041009800b4
:1037b4000080fa00000006000600fa0010079800d6
:1037c400210798001e00900090009000010f7800df
:1037d4002e0090009e007800110098001e007800d2
:1037e400a00090002e009000210098001e00780098
:1037f40020009000ae009000110098001e00780098
:10380400ae009000210098002e0090009e009000d1
:10381400410098001e009000100078008000e8002d
:103824001e009000010878000080fa0000000600e5
:103834000800fa0020079800310798003e00900025
:1038440090007800110798001e009000e10f4000de
:1038540004003a002e009000c0009000010f780090
:103864000d0037002e00900064004000000f780027
:10387400030037001e00780090009000010f7800cc
:103884001e00780010009000900078001e00900048
:10389400808f5000f7ff36001e00780090009000e3
:1038a4003e009000110098003e009000100090002f
:1038b400be009000210098003e0090009e00780019
:1038c400210098001e007800be00900011009800ae
:1038d4003e009000ae009000410098002e00900041
:1038e400100078008000e8002e00900001087800a5
:1038f4000080fa00000006000400fa001007980097
:103904001e009000c0009000010f78001e0090007f
:10391400100090009e009000a100900021009800eb
:103924001e009000200090009e00900091009000e6
:10393400110098001e007800900090001e00900076
:10394400808f500004003a001e009000a0009000f8
:103954001e007800110098001e0090008000eb000b
:10396400410098001e007800100078008000e900f3
:103974001e007800010878001e007800100078000e
:103984000080fa00000006000000fa0002a1a8006e
:1039940011088000f08f2f0000806000100888005c
:1039a40000088000000178000260a100600420008b
:1039b40071052000031020008049780081497800b7
:1039c400824978006a26ef007e26ef009226ef00f7
:1039d40000088000000178000260a000600420005c
:1039e4007105200003102000804978008149780087
:1039f400824978000080fa00000006000200fa0004
:103a0400000f78008e66a900803e2000d3f30700e3
:103a1400404180000000e800404188008e66a80014
:103a2400803e2000cdf30700404180000000e80004
:103a340040418800f3ff37000000fa00d2ff07007e
:103a44008002eb00340020008001eb00820c200097
:103a54008127280000d02100adf20700eef4070012
:103a6400ffff37004200f800801f780000022000aa
:103a740010028800811f7800829fbe00849fbe00d0
:103a8400869fbe00889fbe008a9fbe008c9fbe009a
:103a94008e1f78003600f8005400f8004400f80047
:103aa4003200f8003400f80050418000801f780094
:103ab400004080000f087800320902000000000076
:103ac40000408000900778004f0078005041880043
:103ad4003400f9003200f9004400f9005400f90000
:103ae4003600f9004f0778004f06be004f05be00b0
:103af4004f04be004f03be004f02be004f01be0084
:0c3b04004f00be004200f9000000060067
:020000040000fa
:103b10002808000002000000800000002c100000b7
:103b20005000000080000000000800001c000000a1
:103b3000800000002a08000002000000820000004f
:103b4000ef0000002c0800000008000080000000ca
:103b50001c0800000c0000008000000000000000b5
:020000040000fa
:020000040002f8
:04be300061ffff00af
:020000040000fa
:020000040002f8
:04be38008bffff007d
:020000040000fa
:020000040002f8
:04be40009fffff0061
:020000040000fa
:020000040002f8
:04be4800fbffff00fd
:020000040000fa
:020000040002f8
:04be5000dfffff0011
:020000040000fa
:020000040002f8
:04be5800ffffff00e9
:00000001FF
